{
    "_format": "hh-sol-artifact-1",
    "contractName": "CertiChain",
    "sourceName": "contracts/CertiChain.sol",
    "abi": [
        {
            "inputs": [],
            "stateMutability": "nonpayable",
            "type": "constructor"
        },
        {
            "inputs": [],
            "name": "certificateCount",
            "outputs": [
                {
                    "internalType": "uint256",
                    "name": "",
                    "type": "uint256"
                }
            ],
            "stateMutability": "view",
            "type": "function"
        },
        {
            "inputs": [
                {
                    "internalType": "uint256",
                    "name": "",
                    "type": "uint256"
                }
            ],
            "name": "certificates",
            "outputs": [
                {
                    "internalType": "string",
                    "name": "studentName",
                    "type": "string"
                },
                {
                    "internalType": "string",
                    "name": "course",
                    "type": "string"
                },
                {
                    "internalType": "string",
                    "name": "issuer",
                    "type": "string"
                },
                {
                    "internalType": "string",
                    "name": "issueDate",
                    "type": "string"
                }
            ],
            "stateMutability": "view",
            "type": "function"
        },
        {
            "inputs": [
                {
                    "internalType": "string",
                    "name": "studentName",
                    "type": "string"
                },
                {
                    "internalType": "string",
                    "name": "course",
                    "type": "string"
                },
                {
                    "internalType": "string",
                    "name": "issuer",
                    "type": "string"
                },
                {
                    "internalType": "string",
                    "name": "issueDate",
                    "type": "string"
                }
            ],
            "name": "issueCertificate",
            "outputs": [],
            "stateMutability": "nonpayable",
            "type": "function"
        },
        {
            "inputs": [],
            "name": "owner",
            "outputs": [
                {
                    "internalType": "address",
                    "name": "",
                    "type": "address"
                }
            ],
            "stateMutability": "view",
            "type": "function"
        },
        {
            "inputs": [
                {
                    "internalType": "uint256",
                    "name": "id",
                    "type": "uint256"
                }
            ],
            "name": "verifyCertificate",
            "outputs": [
                {
                    "internalType": "string",
                    "name": "",
                    "type": "string"
                },
                {
                    "internalType": "string",
                    "name": "",
                    "type": "string"
                },
                {
                    "internalType": "string",
                    "name": "",
                    "type": "string"
                },
                {
                    "internalType": "string",
                    "name": "",
                    "type": "string"
                }
            ],
            "stateMutability": "view",
            "type": "function"
        }
    ],
    "bytecode": "0x6080604052348015600f57600080fd5b50336000806101000a81548173ffffffffffffffffffffffffffffffffffffffff021916908373ffffffffffffffffffffffffffffffffffffffff160217905550610f7c8061005f6000396000f3fe608060405234801561001057600080fd5b50600436106100575760003560e01c80631692a9421461005c57806352d7b89c1461008f578063663b3e22146100ad578063818a2994146100e05780638da5cb5b146100fc575b600080fd5b610076600480360381019061007191906107af565b61011a565b604051610086949392919061086c565b60405180910390f35b6100976103ae565b6040516100a491906108dc565b60405180910390f35b6100c760048036038101906100c291906107af565b6103b4565b6040516100d7949392919061086c565b60405180910390f35b6100fa60048036038101906100f59190610a2c565b610604565b005b610104610741565b6040516101119190610b44565b60405180910390f35b60608060608060006002600087815260200190815260200160002060405180608001604052908160008201805461015090610b8e565b80601f016020809104026020016040519081016040528092919081815260200182805461017c90610b8e565b80156101c95780601f1061019e576101008083540402835291602001916101c9565b820191906000526020600020905b8154815290600101906020018083116101ac57829003601f168201915b505050505081526020016001820180546101e290610b8e565b80601f016020809104026020016040519081016040528092919081815260200182805461020e90610b8e565b801561025b5780601f106102305761010080835404028352916020019161025b565b820191906000526020600020905b81548152906001019060200180831161023e57829003601f168201915b5050505050815260200160028201805461027490610b8e565b80601f01602080910402602001604051908101604052809291908181526020018280546102a090610b8e565b80156102ed5780601f106102c2576101008083540402835291602001916102ed565b820191906000526020600020905b8154815290600101906020018083116102d057829003601f168201915b5050505050815260200160038201805461030690610b8e565b80601f016020809104026020016040519081016040528092919081815260200182805461033290610b8e565b801561037f5780601f106103545761010080835404028352916020019161037f565b820191906000526020600020905b81548152906001019060200180831161036257829003601f168201915b505050505081525050905080600001518160200151826040015183606001519450945094509450509193509193565b60015481565b60026020528060005260406000206000915090508060000180546103d790610b8e565b80601f016020809104026020016040519081016040528092919081815260200182805461040390610b8e565b80156104505780601f1061042557610100808354040283529160200191610450565b820191906000526020600020905b81548152906001019060200180831161043357829003601f168201915b50505050509080600101805461046590610b8e565b80601f016020809104026020016040519081016040528092919081815260200182805461049190610b8e565b80156104de5780601f106104b3576101008083540402835291602001916104de565b820191906000526020600020905b8154815290600101906020018083116104c157829003601f168201915b5050505050908060020180546104f390610b8e565b80601f016020809104026020016040519081016040528092919081815260200182805461051f90610b8e565b801561056c5780601f106105415761010080835404028352916020019161056c565b820191906000526020600020905b81548152906001019060200180831161054f57829003601f168201915b50505050509080600301805461058190610b8e565b80601f01602080910402602001604051908101604052809291908181526020018280546105ad90610b8e565b80156105fa5780601f106105cf576101008083540402835291602001916105fa565b820191906000526020600020905b8154815290600101906020018083116105dd57829003601f168201915b5050505050905084565b60008054906101000a900473ffffffffffffffffffffffffffffffffffffffff1673ffffffffffffffffffffffffffffffffffffffff163373ffffffffffffffffffffffffffffffffffffffff1614610692576040517f08c379a000000000000000000000000000000000000000000000000000000000815260040161068990610c31565b60405180910390fd5b600160008154809291906106a590610c80565b919050555060405180608001604052808581526020018481526020018381526020018281525060026000600154815260200190815260200160002060008201518160000190816106f59190610e74565b50602082015181600101908161070b9190610e74565b5060408201518160020190816107219190610e74565b5060608201518160030190816107379190610e74565b5090505050505050565b60008054906101000a900473ffffffffffffffffffffffffffffffffffffffff1681565b6000604051905090565b600080fd5b600080fd5b6000819050919050565b61078c81610779565b811461079757600080fd5b50565b6000813590506107a981610783565b92915050565b6000602082840312156107c5576107c461076f565b5b60006107d38482850161079a565b91505092915050565b600081519050919050565b600082825260208201905092915050565b60005b838110156108165780820151818401526020810190506107fb565b60008484015250505050565b6000601f19601f8301169050919050565b600061083e826107dc565b61084881856107e7565b93506108588185602086016107f8565b61086181610822565b840191505092915050565b600060808201905081810360008301526108868187610833565b9050818103602083015261089a8186610833565b905081810360408301526108ae8185610833565b905081810360608301526108c28184610833565b905095945050505050565b6108d681610779565b82525050565b60006020820190506108f160008301846108cd565b92915050565b600080fd5b600080fd5b7f4e487b7100000000000000000000000000000000000000000000000000000000600052604160045260246000fd5b61093982610822565b810181811067ffffffffffffffff8211171561095857610957610901565b5b80604052505050565b600061096b610765565b90506109778282610930565b919050565b600067ffffffffffffffff82111561099757610996610901565b5b6109a082610822565b9050602081019050919050565b82818337600083830152505050565b60006109cf6109ca8461097c565b610961565b9050828152602081018484840111156109eb576109ea6108fc565b5b6109f68482856109ad565b509392505050565b600082601f830112610a1357610a126108f7565b5b8135610a238482602086016109bc565b91505092915050565b60008060008060808587031215610a4657610a4561076f565b5b600085013567ffffffffffffffff811115610a6457610a63610774565b5b610a70878288016109fe565b945050602085013567ffffffffffffffff811115610a9157610a90610774565b5b610a9d878288016109fe565b935050604085013567ffffffffffffffff811115610abe57610abd610774565b5b610aca878288016109fe565b925050606085013567ffffffffffffffff811115610aeb57610aea610774565b5b610af7878288016109fe565b91505092959194509250565b600073ffffffffffffffffffffffffffffffffffffffff82169050919050565b6000610b2e82610b03565b9050919050565b610b3e81610b23565b82525050565b6000602082019050610b596000830184610b35565b92915050565b7f4e487b7100000000000000000000000000000000000000000000000000000000600052602260045260246000fd5b60006002820490506001821680610ba657607f821691505b602082108103610bb957610bb8610b5f565b5b50919050565b7f4f6e6c792074686520617574686f72697a6564206973737565722063616e207060008201527f6572666f726d207468697320616374696f6e0000000000000000000000000000602082015250565b6000610c1b6032836107e7565b9150610c2682610bbf565b604082019050919050565b60006020820190508181036000830152610c4a81610c0e565b9050919050565b7f4e487b7100000000000000000000000000000000000000000000000000000000600052601160045260246000fd5b6000610c8b82610779565b91507fffffffffffffffffffffffffffffffffffffffffffffffffffffffffffffffff8203610cbd57610cbc610c51565b5b600182019050919050565b60008190508160005260206000209050919050565b60006020601f8301049050919050565b600082821b905092915050565b600060088302610d2a7fffffffffffffffffffffffffffffffffffffffffffffffffffffffffffffffff82610ced565b610d348683610ced565b95508019841693508086168417925050509392505050565b6000819050919050565b6000610d71610d6c610d6784610779565b610d4c565b610779565b9050919050565b6000819050919050565b610d8b83610d56565b610d9f610d9782610d78565b848454610cfa565b825550505050565b600090565b610db4610da7565b610dbf818484610d82565b505050565b5b81811015610de357610dd8600082610dac565b600181019050610dc5565b5050565b601f821115610e2857610df981610cc8565b610e0284610cdd565b81016020851015610e11578190505b610e25610e1d85610cdd565b830182610dc4565b50505b505050565b600082821c905092915050565b6000610e4b60001984600802610e2d565b1980831691505092915050565b6000610e648383610e3a565b9150826002028217905092915050565b610e7d826107dc565b67ffffffffffffffff811115610e9657610e95610901565b5b610ea08254610b8e565b610eab828285610de7565b600060209050601f831160018114610ede5760008415610ecc578287015190505b610ed68582610e58565b865550610f3e565b601f198416610eec86610cc8565b60005b82811015610f1457848901518255600182019150602085019450602081019050610eef565b86831015610f315784890151610f2d601f891682610e3a565b8355505b6001600288020188555050505b50505050505056fea26469706673582212200583133df8059995ea5bef899e49ed25d90ae211705428616aac3a2d5b46855a64736f6c634300081c0033",
    "linkReferences": {},
    "deployedLinkReferences": {}
}